{
  "contractName": "Conditionals",
  "abi": [
    {
      "inputs": [
        {
          "internalType": "uint256",
          "name": "_a",
          "type": "uint256"
        },
        {
          "internalType": "uint256",
          "name": "_b",
          "type": "uint256"
        }
      ],
      "name": "subtract",
      "outputs": [
        {
          "internalType": "uint256",
          "name": "",
          "type": "uint256"
        }
      ],
      "stateMutability": "pure",
      "type": "function",
      "constant": true
    },
    {
      "inputs": [
        {
          "internalType": "uint256",
          "name": "_a",
          "type": "uint256"
        },
        {
          "internalType": "uint256",
          "name": "_b",
          "type": "uint256"
        }
      ],
      "name": "multiplyValue",
      "outputs": [],
      "stateMutability": "pure",
      "type": "function",
      "constant": true
    },
    {
      "inputs": [
        {
          "internalType": "uint256",
          "name": "_num",
          "type": "uint256"
        }
      ],
      "name": "setNumber",
      "outputs": [],
      "stateMutability": "nonpayable",
      "type": "function"
    }
  ],
  "bytecode": "0x608060405234801561001057600080fd5b5061043f806100206000396000f3fe608060405234801561001057600080fd5b50600436106100415760003560e01c80633ef5e445146100465780633fb5c1cb146100765780638f3d1e4614610092575b600080fd5b610060600480360381019061005b91906101b5565b6100ae565b60405161006d9190610204565b60405180910390f35b610090600480360381019061008b919061021f565b610107565b005b6100ac60048036038101906100a791906101b5565b610154565b005b6000818310156100f3576040517f08c379a00000000000000000000000000000000000000000000000000000000081526004016100ea906102a9565b60405180910390fd5b81836100ff91906102f8565b905092915050565b6000811161014a576040517f08c379a000000000000000000000000000000000000000000000000000000000815260040161014190610378565b60405180910390fd5b8060008190555050565b600081836101629190610398565b905060648114610175576101746103da565b5b505050565b600080fd5b6000819050919050565b6101928161017f565b811461019d57600080fd5b50565b6000813590506101af81610189565b92915050565b600080604083850312156101cc576101cb61017a565b5b60006101da858286016101a0565b92505060206101eb858286016101a0565b9150509250929050565b6101fe8161017f565b82525050565b600060208201905061021960008301846101f5565b92915050565b6000602082840312156102355761023461017a565b5b6000610243848285016101a0565b91505092915050565b600082825260208201905092915050565b7f5f61206d7573742062652067726561746572207468616e205f62000000000000600082015250565b6000610293601a8361024c565b915061029e8261025d565b602082019050919050565b600060208201905081810360008301526102c281610286565b9050919050565b7f4e487b7100000000000000000000000000000000000000000000000000000000600052601160045260246000fd5b60006103038261017f565b915061030e8361017f565b9250828203905081811115610326576103256102c9565b5b92915050565b7f5f6e756d2063616e2774206265207a65726f0000000000000000000000000000600082015250565b600061036260128361024c565b915061036d8261032c565b602082019050919050565b6000602082019050818103600083015261039181610355565b9050919050565b60006103a38261017f565b91506103ae8361017f565b92508282026103bc8161017f565b915082820484148315176103d3576103d26102c9565b5b5092915050565b7f4e487b7100000000000000000000000000000000000000000000000000000000600052600160045260246000fdfea2646970667358221220c99211e22b3ca028b0221a00b5981160ce6c3ef9e205da3601025350914018ca64736f6c63430008110033",
  "immutableReferences": {},
  "source": "\n// SPDX-License-Identifier: MIT\npragma solidity ^0.8.17;\n\ncontract Conditionals {\n    uint256 private secretNumber;\n\n    function subtract(uint256 _a, uint256 _b) public pure returns(uint256){\n        require(_a >= _b, \"_a must be greater than _b\");\n        return _a - _b;\n    }\n\n    function multiplyValue(uint256 _a, uint256 _b) public pure{\n        uint256 value = _a * _b;\n        assert(value == 100);\n    }\n\n    function setNumber(uint256 _num) public {\n        if(_num <= 0){\n            revert(\"_num can't be zero\");\n        }\n        secretNumber = _num;\n    }\n\n}\n",
  "sourcePath": "/workspace/solidity_starter/contracts/Conditionals.sol",
  "compiler": {
    "name": "solc",
    "version": "0.8.17+commit.8df45f5f.Emscripten.clang"
  },
  "schemaVersion": "3.4.16",
  "updatedAt": "2024-03-14T21:06:16.859Z",
  "networkType": "ethereum",
  "devdoc": {
    "kind": "dev",
    "methods": {},
    "version": 1
  },
  "userdoc": {
    "kind": "user",
    "methods": {},
    "version": 1
  }
}